:100000000C9461000C947E000C947E000C947E0095
:100010000C947E000C947E000C947E000C947E0068
:100020000C947E000C947E000C947E000C947E0058
:100030000C947E000C947E000C947E000C947E0048
:100040000C94DD060C947E000C947E000C947E00D3
:100050000C947E000C947E000C947E000C947E0028
:100060000C947E000C947E00000000002400270009
:100070002A0000000000250028002B0000000000DE
:1000800023002600290004040404040404040202DA
:100090000202020203030303030301020408102007
:1000A0004080010204081020010204081020000012
:1000B0000007000201000003040600000000000029
:1000C000000011241FBECFEFD8E0DEBFCDBF11E08E
:1000D000A0E0B1E0ECE9F0E102C005900D92A031A2
:1000E000B107D9F711E0A0E1B1E001C01D92A3333F
:1000F000B107E1F70E94D1070C944C080C94000062
:10010000FC0188279927E89421912032E9F32930CE
:1001100010F02E30C8F32B3241F02D3239F46894B0
:1001200004C00E949E00820F911D219120532A300D
:10013000C0F31EF4909581959F4F08957AE0979FA4
:10014000902D879F802D910D11240895AEE0B0E091
:10015000ECEAF0E00C9423080D891E8986E08C837C
:100160001A8309838FEF9FE79E838D839E01275E0D
:100170003F4FCE0101966F89788DA9010E94CA0078
:100180002F813885020F131FF80110822E96E4E0AC
:100190000C943F08ABE0B0E0E0EDF0E00C94150803
:1001A0003C012B015A01FC0117821682838181FDDB
:1001B00003C06FEF7FEFC6C19AE0892E1E0108943D
:1001C000211C311CF3012381F20123FD859123FFC2
:1001D00081912F01882309F4B2C1853239F423FDBE
:1001E000859123FF81912F01853229F490E0B3019D
:1001F0000E94BD02E7CF982FFF24EE249924FFE14F
:10020000FF15D0F09B3269F09C3228F4903259F0FF
:10021000933291F40EC09D3249F0903369F441E07D
:1002200024C052E0F52A84E0F82A28C098E0F92A90
:1002300025C0E0E1FE2A22C0F7FC29C0892F8053A7
:100240008A3070F4F6FE05C0989C902C1124980E0C
:1002500015C0E89CE02C1124E80EF0E2FF2A0EC045
:100260009E3229F4F6FC6BC140E4F42A07C09C36A8
:1002700019F450E8F52A02C0983649F4F20123FD3A
:10028000959123FF91912F01992309F0B8CF892FE0
:100290008554833018F08052833038F444E050E0C5
:1002A000A40EB51E5FE359830FC0933631F0933728
:1002B00079F0933509F056C020C0F501808189831B
:1002C00042E050E0A40EB51E610101E010E012C052
:1002D000F501C080D180F6FC03C06FEF7FEF02C054
:1002E000692D70E042E050E0A40EB51EC6010E94E8
:1002F000B2028C015FE7F52214C0F501C080D18005
:10030000F6FC03C06FEF7FEF02C0692D70E042E0A2
:1003100050E0A40EB51EC6010E94A7028C0150E851
:10032000F52AF3FE07C01AC080E290E0B3010E94F4
:10033000BD02EA948E2D90E008171907A8F30EC0AD
:10034000F601F7FC8591F7FE81916F0190E0B30112
:100350000E94BD02E110EA94015010400115110500
:1003600079F7EAC0943611F0993669F5F7FE08C0BE
:10037000F501208131814281538184E090E00AC0FF
:10038000F501808191819C01442737FD4095542FD0
:1003900082E090E0A80EB91E9FE6F92257FF09C03F
:1003A00050954095309521953F4F4F4F5F4FE0E876
:1003B000FE2ACA01B901A1012AE030E00E94E90247
:1003C000D82ED21840C0953729F41F2D1F7E2AE061
:1003D00030E01DC01F2D197F9F3661F0903720F44B
:1003E000983509F0ACC00FC0903739F0983709F054
:1003F000A6C004C028E030E00AC0106114FD1460FB
:1004000020E130E004C014FD166020E132E017FF67
:1004100008C0F501608171818281938144E050E0E0
:1004200008C0F50180819181BC0180E090E042E04C
:1004300050E0A40EB51EA1010E94E902D82ED218E8
:100440008FE7F82EF122F6FE0BC05EEFF522D914ED
:1004500038F4F4FE07C0F2FC05C08FEEF82202C0AB
:100460001D2D01C0192DF4FE0DC0FE01ED0DF11D75
:100470008081803319F499EEF92208C01F5FF2FEE3
:1004800005C003C08F2D867809F01F5F0F2DF3FC88
:1004900014C0F0FE0FC01E1510F09D2C0BC09D2C3B
:1004A0009E0C911A1E2D06C080E290E0B3010E94BE
:1004B000BD021F5F1E15C0F304C01E1510F4E11A23
:1004C00001C0EE2404FF0FC080E390E0B3010E945E
:1004D000BD0202FF1DC001FD03C088E790E00EC011
:1004E00088E590E00BC0802F867891F001FF02C074
:1004F0008BE201C080E2F7FC8DE290E0B3010E9444
:10050000BD0206C080E390E0B3010E94BD029A9450
:10051000D914C0F3DA94F101ED0DF11D808190E062
:10052000B3010E94BD02DD20A9F706C080E290E081
:10053000B3010E94BD02EA94EE20C1F743CEF3015D
:1005400066817781CB012B96E2E10C943108FC01A6
:100550000590615070400110D8F7809590958E0FEE
:100560009F1F0895FC016150704001900110D8F761
:10057000809590958E0F9F1F08950F931F93CF9393
:10058000DF938C01EB018B8181FF1BC082FF0DC0CB
:100590002E813F818C819D812817390764F4E88181
:1005A000F9810193F983E88306C0E885F985802FF6
:1005B0000995892B31F48E819F8101969F838E83CB
:1005C00002C00FEF1FEFC801DF91CF911F910F9174
:1005D0000895FA01AA27283051F1203181F1E894D9
:1005E0006F936E7F6E5F7F4F8F4F9F4FAF4FB1E026
:1005F0003ED0B4E03CD0670F781F891F9A1FA11D21
:10060000680F791F8A1F911DA11D6A0F711D811D21
:10061000911DA11D20D009F468943F912AE0269FE6
:1006200011243019305D3193DEF6CF010895462F45
:100630004770405D4193B3E00FD0C9F7F6CF462F26
:100640004F70405D4A3318F0495D31FD405241938F
:1006500002D0A9F7EACFB4E0A6959795879577954C
:100660006795BA95C9F700976105710508959B01D3
:10067000AC010A2E06945795479537952795BA955C
:10068000C9F7620F731F841F951FA01D08950F9354
:100690001F93CF93DF93182F042F25C0C62FD0E0D0
:1006A00060FF0DC0F894812F60E00E948906812FC1
:1006B00061E00E94890678948EE190E00EC0812F5F
:1006C00060E00E9489068FE090E00E948C07812FF5
:1006D00061E00E9489068CE390E00E948C07D5952A
:1006E000C7956C2F01500023C9F6DF91CF911F9160
:1006F0000F910895DF92EF92FF920F931F93182F9F
:10070000F62EE42ED22E61E00E944A06812F61E08F
:100710000E948906812F6F2D48E00E944703812F98
:100720006E2D48E00E944703812F6D2D48E00E9406
:100730004703812F602F48E00E944703812F60E02C
:100740000E94890684E690E00E948C07812F61E078
:100750000E9489068CE291E00E948C071F910F9104
:10076000FF90EF90DF900895BF92CF92DF92EF92CB
:10077000FF920F931F93DF93CF9300D000D0CDB79C
:10078000DEB7B82E7B01D42EC22E9B0177FF04C0AA
:1007900022273327261B370B8FEF89838A838B838E
:1007A0008C838E010C5F1F4F44E020C02115310562
:1007B00021F4DD2011F4EFEF0AC0C9016AE070E016
:1007C0000E94EE07E82FF0E0EA5FFE4FE081D801DB
:1007D000EC93C9016AE070E00E94EE079B0161158D
:1007E000710511F4DD2021F0015010404150F0F668
:1007F000F7FE0EC014161CF0E0E0F0E005C0E42F98
:10080000FF27E7FDF0953197EC0FFD1F8DEF8183FA
:10081000FE01329643E050E0BE016A5F7F4F2C2D0F
:1008200030E00FC0C901042E02C0959587950A9447
:10083000E2F780FF03C080818E7F80833196415034
:100840005040E617F70771F78B2D69814A812B819C
:100850000C810E947A030F900F900F900F90CF9110
:10086000DF911F910F91FF90EF90DF90CF90BF909D
:100870000895EF92FF920F931F93DF93CF9300D0D1
:1008800000D000D0CDB7DEB7E62E00D000D000D02B
:10089000EDB7FEB731968E010F5F1F4FADB7BEB7F4
:1008A00012961C930E93119720E031E0338322833C
:1008B000958384830E94A600FF24E7FCF0940E1920
:1008C0001F09F80183812DB73EB72A5F3F4F0FB64E
:1008D000F8943EBF0FBE2DBF805326960FB6F894F6
:1008E000DEBF0FBECDBFCF91DF911F910F91FF9063
:1008F000EF900895DF92EF92FF920F931F93DF9393
:10090000CF9300D000D000D0CDB7DEB7062FD42EC5
:1009100000D000D000D0EDB7FEB731967E0108942C
:10092000E11CF11CADB7BEB71296FC92EE92119786
:1009300020E031E033832283958384830E94A600E4
:10094000112707FD1095F701E01BF10BB0E3DB0E5B
:10095000D3828DB79EB706960FB6F8949EBF0FBE92
:100960008DBFC7010E94800026960FB6F894DEBFA7
:100970000FBECDBFCF91DF911F910F91FF90EF90F0
:10098000DF900895CF92DF92EF92FF920F931F9323
:10099000CF93DF938EE00E94C8056C0182E3C816F6
:1009A000D10410F4CC24DD248EE1E82E81E0F82E71
:1009B00000E08091280190912901602F0E94390464
:1009C000182FC601602F0E9439041817A9F0C09192
:1009D0002801D0912901C601602F0E943904482FB7
:1009E000CE01602F0E947A04909329018093280100
:1009F000F701118210821BC0F701808191818A303A
:100A0000910520F401969183808311C0C091260145
:100A1000D0912701C601602F0E943904482FCE01D2
:100A2000602F0E947A0490932701809326010F5F24
:100A300082E090E0E80EF91E043009F0BACF809110
:100A4000260190912701DF91CF911F910F91FF9087
:100A5000EF90DF90CF900895EF92FF920F931F9346
:100A6000CF93DF93809110018823C1F480E191E05E
:100A70000E94E007892B91F00E942507605A75417A
:100A80008F4F9F4F60931A0170931B0180931C013D
:100A900090931D0180E191E00E94EA070E94C20448
:100AA000EC018091180190911901C817D90751F0F4
:100AB000D0931901C093180183E0BE0140E020E00B
:100AC0000E94B403E0901A01F0901B0100911C01F8
:100AD00010911D01E114F1040105110599F10E9425
:100AE0002507E61AF70A080B190B8BE0E816F10444
:100AF0000105110538F131C082E061E00E948906EC
:100B000085E062E370E00E94EA056CED75E080E04C
:100B100090E00E94330782E060E00E94890685E051
:100B200060E00E9489060E942507605E70448D4F38
:100B30009F4F60931A0170931B0180931C01909347
:100B40001D010BC010921A0110921B0110921C0182
:100B500010921D01C83CD10578F2DF91CF911F9111
:100B60000F91FF90EF90089582E061E00E944A06A5
:100B700083E061E00E944A0685E061E00E944A0647
:100B800083E060E070E040E020E00E94B40308955C
:100B9000982F8E3008F09E509770809105018295B5
:100BA000880F880F807C892B80937C0080917A004D
:100BB000806480937A0080917A0086FDFCCF20913A
:100BC000780040917900942F80E030E0282B392B79
:100BD000C90108951F93CF93DF93182FEB0161E0B4
:100BE0000E944A06209709F44AC0CF3FD10509F474
:100BF00049C0E12FF0E0E255FF4F84918330C1F00E
:100C0000843028F4813051F08230B1F50CC0863048
:100C100019F1873049F1843079F514C084B58068C2
:100C200084BDC7BD33C084B5806284BDC8BD2EC03D
:100C300080918000806880938000D0938900C09369
:100C4000880024C080918000806280938000D093CF
:100C50008B00C0938A001AC08091B0008068809396
:100C6000B000C093B30012C08091B0008062809346
:100C7000B000C093B4000AC0C038D1051CF4812F65
:100C800060E002C0812F61E00E948906DF91CF9170
:100C90001F910895CF93DF93482F50E0CA018656E5
:100CA0009F4FFC0134914A575F4FFA01849188238A
:100CB00069F190E0880F991FFC01E859FF4FA59159
:100CC000B491FC01EE58FF4FC591D491662351F4C5
:100CD0002FB7F8948C91932F909589238C938881CA
:100CE00089230BC0623061F42FB7F8948C91932F55
:100CF000909589238C938881832B88832FBF06C08E
:100D00009FB7F8948C91832B8C939FBFDF91CF91E9
:100D10000895482F50E0CA0182559F4FFC0124914D
:100D2000CA0186569F4FFC0194914A575F4FFA01C2
:100D30003491332309F440C0222351F1233071F060
:100D4000243028F42130A1F0223011F514C02630CF
:100D5000B1F02730C1F02430D9F404C08091800074
:100D60008F7703C0809180008F7D8093800010C0BA
:100D700084B58F7702C084B58F7D84BD09C0809112
:100D8000B0008F7703C08091B0008F7D8093B0005A
:100D9000E32FF0E0EE0FFF1FEE58FF4FA591B49147
:100DA0002FB7F894662321F48C919095892302C083
:100DB0008C91892B8C932FBF08951F920F920FB6A1
:100DC0000F9211242F933F938F939F93AF93BF93D1
:100DD00080912E0190912F01A0913001B0913101AD
:100DE000309132010196A11DB11D232F2D5F2D37AA
:100DF00020F02D570196A11DB11D20933201809343
:100E00002E0190932F01A0933001B0933101809176
:100E10002A0190912B01A0912C01B0912D010196F6
:100E2000A11DB11D80932A0190932B01A0932C0149
:100E3000B0932D01BF91AF919F918F913F912F91D1
:100E40000F900FBE0F901F9018958FB7F8942091B8
:100E50002E0130912F0140913001509131018FBF0F
:100E6000B901CA0108959B01AC017FB7F894809144
:100E70002A0190912B01A0912C01B0912D0166B512
:100E8000A89B05C06F3F19F00196A11DB11D7FBF42
:100E9000BA2FA92F982F8827860F911DA11DB11D4C
:100EA00062E0880F991FAA1FBB1F6A95D1F7BC018A
:100EB0002DC0FFB7F89480912A0190912B01A09149
:100EC0002C01B0912D01E6B5A89B05C0EF3F19F0AC
:100ED0000196A11DB11DFFBFBA2FA92F982F8827FA
:100EE0008E0F911DA11DB11DE2E0880F991FAA1F51
:100EF000BB1FEA95D1F7861B970B885E9340C8F21B
:100F0000215030404040504068517C4F2115310500
:100F10004105510571F60895019739F0880F991F21
:100F2000880F991F02970197F1F70895789484B577
:100F3000826084BD84B5816084BD85B5826085BDD5
:100F400085B5816085BDEEE6F0E0808181608083BB
:100F5000E1E8F0E01082808182608083808181609E
:100F60008083E0E8F0E0808181608083E1EBF0E065
:100F7000808184608083E0EBF0E080818160808309
:100F8000EAE7F0E0808184608083808182608083F2
:100F90008081816080838081806880831092C1001D
:100FA0000895CF93DF930E9496070E94B405C0E096
:100FB000D0E00E942C052097E1F30E940000F9CFB9
:100FC000FC0120E030E08081882311F421E030E052
:100FD000C9010895FC0181E08083089597FB092EE3
:100FE00007260AD077FD04D00CD006D000201AF4D2
:100FF000709561957F4F0895F6F7909581959F4F75
:101000000895AA1BBB1B51E107C0AA1FBB1FA6174F
:10101000B70710F0A61BB70B881F991F5A95A9F7A1
:1010200080959095BC01CD0108952F923F924F92EB
:101030005F926F927F928F929F92AF92BF92CF9268
:10104000DF92EF92FF920F931F93CF93DF93CDB771
:10105000DEB7CA1BDB0B0FB6F894DEBF0FBECDBFE9
:1010600009942A88398848885F846E847D848C84BA
:101070009B84AA84B984C884DF80EE80FD800C81C3
:101080001B81AA81B981CE0FD11D0FB6F894DEBFA6
:0C1090000FBECDBFED010895F894FFCF16
:10109C00253034750001039F250D9949411F010925
:00000001FF
